:04000000D9EFFEF046
:020000040001F9
:10FDB200096A086A076A066A000154EFFFF0000E3A
:10FDC200F66E000EF76E180EF86E0800F5500F0B67
:10FDD200016E015000D01200000EF66E000EF76E9A
:10FDE2001A0EF86E020EF56E0C00000E026E020E76
:10FDF200016E37ECFFF01200000EF66E000EF76E89
:10FE02001A0EF86E010EF56E0C00000E026E020E56
:10FE1200016E37ECFFF01200A00E0F010F01266FEA
:10FE2200000E0F010F01256F000E0F010F01246F4D
:10FE3200000E0F010F01236F010E936E120001508D
:10FE4200300F016E10D00A0E016001D001D006D031
:10FE5200100E016001D001D006D000D00150410F38
:10FE6200016E01D000D0015000D01200000E056ECC
:10FE7200000E046E0AD0040E036E950EE82EFED715
:10FE8200032EFCD700D0044A052A0550800A036ECF
:10FE92000150045C0250800A0358D8A001D001D05E
:10FEA200EAD700D012000DECFFF078ECFFF000D0A2
:10FEB200EDECFEF0FDECFEF0E0ECFEF0086E08C0AA
:10FEC20001F020ECFFF0096E020EF66E000EF76EE6
:10FED2001A0EF86E09C0F5FF0C00000E026EFA0E43
:10FEE200016E37ECFFF0E4D7E3D700EF00F0000E2D
:10FEF200026E640E016E37ECFFF0000EF66E000E1D
:10FF0200F76E1A0EF86E380EF56E0C00000E026EC9
:10FF1200050E016E37ECFFF0000EF66E000EF76E66
:10FF22001A0EF86E380EF56E0C00000E026E010EFF
:10FF3200016E37ECFFF0000EF66E000EF76E1A0E31
:10FF4200F86E380EF56E0C00000E026E010E016E98
:10FF520037ECFFF0000EF66E000EF76E1A0EF86E1A
:10FF6200380EF56E0C00000E026E010E016E37ECBB
:10FF7200FFF0000EF66E000EF76E1A0EF86E140EFB
:10FF8200F56E0C00000E026E010E016E37ECFFF0F2
:10FF9200000EF66E000EF76E1A0EF86E0E0EF56E6D
:10FFA2000C00000E026E010E016E37ECFFF0000E27
:10FFB200F66E000EF76E1A0EF86E060EF56E0C0057
:10FFC200000E026E020E016E37ECFFF0000EF66EAE
:10FFD200000EF76E1A0EF86E020EF56E0C00000E91
:10FFE200026E020E016E37ECFFF0000EF66E000E8E
:0EFFF200F76E1A0EF86E010EF56E0C0012007E
:020000040020DA
:08000000FFFFFFFFFFFFFFFF00
:020000040030CA
:0E0000001D036100018B81FFFFC0FFE0FF4088
:00000001FF
