:0400000051EF00F0CC
:10000800FACF12F0FBCF13F0E9CF14F04EEF06F061
:10001800D8CF01F0E8CF02F0E0CF03F0FACF04F038
:10002800FBCF05F0E9CF06F0EACF07F0E1CF08F003
:10003800E2CF09F0D9CF0AF0DACF0BF0F3CF0CF00A
:10004800F4CF0DF0F6CF0EF0F7CF0FF0F8CF10F099
:10005800F5CF11F011C0F5FF10C0F8FF0FC0F7FF82
:100068000EC0F6FF0DC0F4FF0CC0F3FF0BC0DAFFA3
:100078000AC0D9FF09C0E2FF08C0E1FF07C0EAFFD4
:1000880006C0E9FF05C0FBFF04C0FAFF03C0E0FF9C
:1000980002C0E8FF01C0D8FF100082EF07F0A0EC13
:1000A80006F06CEC04F00EEC08F00001896F530EBA
:1000B80000010001606F000189510001FEEC07F0AA
:1000C8000001896F650E00010001606F0001895110
:1000D8000001FEEC07F00001896F720E00010001BB
:1000E800606F000189510001FEEC07F00001896F83
:1000F800690E00010001606F000189510001FEECEA
:1001080007F00001896F610E00010001606F0001B6
:1001180089510001FEEC07F00001896F6C0E0001A7
:100128000001606F000189510001FEEC07F0000139
:10013800896F0D0E00010001606F000189510001F7
:10014800FEEC07F00001896F0A0E00010001606FE4
:10015800000189510001FEEC07F0DEEC07F0CEEC5F
:1001680007F0BEEC07F0020EF66E000EF76E1A0EE0
:10017800F86E530EF56E0C00000E216E020E206E06
:10018800A1EC07F0020EF66E000EF76E1A0EF86E6E
:100198005F0EF56E0C00000E216E020E206EA1ECB3
:1001A80007F0020EF66E000EF76E1A0EF86E560E77
:1001B800F56E0C00000E216E020E206EA1EC07F009
:1001C800020EF66E000EF76E1A0EF86E450EF56EFC
:1001D8000C00000E216E020E206EA1EC07F0020E3C
:1001E800F66E000EF76E1A0EF86E4E0EF56E0C00D7
:1001F800000E216E020E206EA1EC07F0020EF66EC4
:10020800000EF76E1A0EF86E540EF56E0C00000E06
:10021800216E020E206EA1EC07F0020EF66E000EA3
:10022800F76E1A0EF86E3D0EF56E0C00000E216E7C
:10023800020E206EA1EC07F000D03B043C10D8A4BD
:1002480001D001D021D0DEEC07F0CEEC07F0E5ECD0
:1002580006F020C03DF021C03EF03DC064F03EC035
:1002680065F0000E00010001676F040E0001666F63
:100278000001D3EC03F0000ED76E000ED66E000E10
:100288003C6E000E3B6E00D08B84D59E00D081B2B0
:1002980001D001D0FCD701D000D081A201D001D07B
:1002A800FCD7D58E00D081B201D001D0FCD7D59E25
:1002B800BEEC07F0000E00010001616F070E00019F
:1002C800606F000155EC07F0330E000100016C6F00
:1002D800390E000100016D6F420E000100016E6FC2
:1002E800E5EC06F020C064F021C065F000011EECCA
:1002F80007F064C069F065C06AF066C06BF0000181
:10030800CDEC01F069C07AF06AC07BF06BC07CF07C
:100318000001E1EC02F07AC03DF07BC03EF03DC048
:1003280064F03EC065F0000E00010001676F040E26
:100338000001666F0001D3EC03F0020EF66E000EAA
:10034800F76E1A0EF86E750EF56E0C00000E216E23
:10035800020E206EA1EC07F0020EF66E000EF76E8C
:100368001A0EF86E730EF56E0C00000E216E020E5A
:10037800206EA1EC07F0000ED76E000ED66E000EB0
:10038800216E190E206EA1EC07F057D756D751EF02
:1003980000F00F0E00016F6F000169C070F00001DE
:1003A8006AC071F000016BC072F000016F29000192
:1003B800736F05D00001D890723371337033000128
:1003C800732FF8D70001705100010001746F00010C
:1003D800746701D001D00ED0000E00010001696FD2
:1003E800000E000100016A6F000E000100016B6F32
:1003F800E3D0E2D00F0E00016F6F00016CC070F007
:1004080000016DC071F000016EC072F000016F292B
:100418000001736F05D00001D890723371337033C7
:100428000001732FF8D70001705100010001796FA6
:100438000001796701D001D00ED0000E0001000143
:10044800696F000E000100016A6F000E00010001D3
:100458006B6FB2D0B1D00001000179517B0F000160
:10046800000174276BC079F000016E510001000192
:10047800791B800E000100017917000100016A8FC5
:10048800000100016D8FFF0E000100016C17FF0EC7
:10049800000100016D17000E000100016E17000E2B
:1004A80000010001756F000E00010001766F000E5B
:1004B80000010001776F00016F6F070E0001000156
:1004C800786F00016F5100D00001000169A101D0CF
:1004D80001D013D0000100016C5100010001752703
:1004E800000100016D5100010001762300010001A7
:1004F8006E5100010001772300D00001D89000015F
:100508006B3300016A33000169330001D8900001A0
:100518006C3700016D3700016E3700010001782F3C
:10052800D3D700D000016F6F090E00010001786F6A
:1005380000016F5100D00001000169A101D001D074
:1005480013D0000100016C51000100017527000162
:1005580000016D51000100017623000100016E5178
:1005680000010001772300D00001D89000016B330F
:1005780000016A33000169330001D8900001773324
:10058800000176330001753300010001782FD3D7BD
:1005980000D075C020F076C021F077C022F074C07A
:1005A80023F079C024F0F4EC04F020C069F021C0F5
:1005B8006AF022C06BF000D012000F0E00017E6FAF
:1005C80000017AC07FF000017BC080F000017CC090
:1005D80081F000017E290001826F05D00001D890CA
:1005E800813380337F330001822FF8D700017F5198
:1005F80000010001886F0001886701D001D00FD089
:10060800000E000100017A6F000E00017B6F000EE2
:1006180000017C6F000E00017D6FC0D0BFD0170EA7
:1006280000017E6F00017AC07FF000017BC080F07E
:1006380000017CC081F000017E290001826F05D095
:100648000001D890813380337F330001822FF8D79F
:1006580000017F5100010001836F000100017B8FC1
:10066800FF0E000100017A17FF0E000100017B1741
:10067800000E000100017C17000100017A51000101
:100688000001846F000100017B510001856F0001AA
:100698007C510001866F0001876B8E0E00010001FE
:1006A800885F0001000188AF01D001D029D0000186
:1006B80000018851800A8F0FD8B001D001D010D026
:1006C800000E000100017A6F000E00017B6F000E22
:1006D80000017C6F000E00017D6F60D05FD000D0FC
:1006E8000001D8900001873300018633000185336B
:1006F8000001843300010001883FF2D72ED02DD0AD
:10070800170E00010001886501D001D01ED0000E2F
:10071800000100017A6F000E00017B6F000E0001DE
:100728007C6F000E00017D6F39D038D00ED00001EB
:10073800D890000184370001853700018637000111
:10074800873700010001880700D000010001886791
:1007580001D001D0ECD701D000D0000100018351B5
:10076800D8B401D001D011D000010001871F0001C9
:10077800861F0001851F0001846D000E000185237E
:10078800000186230001872300D084C07AF085C049
:100798007BF086C07CF087C07DF000D01200000E90
:1007A800000100016B6F000E00016A6F34D064C055
:1007B80020F065C021F0000E236E0A0E226EEEECCA
:1007C80005F0D890000100016A350001686F00014A
:1007D80000016B350001696F250E00016825D96E8F
:1007E800000E00016921DA6E20C0DEFF21C0DDFFA6
:1007F80064C020F065C021F0000E236E0A0E226E40
:1008080077EC05F020C064F021C065F0000100011C
:100818006A4B6B2B00D0000100016751800A000170
:10082800686F000100016A5100010001665D000166
:1008380000016B51800A00016859D8B001D001D07D
:10084800B6D766C06CF067C06DF0000100016DAFEF
:1008580001D001D002D03BD03AD0020EF66E000E85
:10086800F76E1A0EF86ED890000100016C35000181
:10087800686F000100016D350001696F250E0001E8
:100888006825D96E000E00016921DA6EDF50300F3D
:10089800F56E0C0001D000D0000EF66E000EF76E5B
:1008A8001A0EF86E0800F5CF68F0000168BF01D095
:1008B80001D0F2D700D0000100016C07D8A06D0765
:1008C800000100016DAF01D001D0C7D700D01200E0
:1008D800000E216E640E206EA1EC07F0000EF66E7D
:1008E800000EF76E1A0EF86E380EF56E0C00000E3C
:1008F800216E050E206EA1EC07F0000EF66E000EBC
:10090800F76E1A0EF86E380EF56E0C00000E216E9A
:10091800010E206EA1EC07F0000EF66E000EF76EC9
:100928001A0EF86E380EF56E0C00000E216E010ED0
:10093800206EA1EC07F0000EF66E000EF76E1A0E90
:10094800F86E380EF56E0C00000E216E010E206E4A
:10095800A1EC07F0000EF66E000EF76E1A0EF86E98
:10096800140EF56E0C00000E216E010E206EA1EC27
:1009780007F0000EF66E000EF76E1A0EF86E0E0EE9
:10098800F56E0C00000E216E010E206EA1EC07F032
:10099800000EF66E000EF76E1A0EF86E060EF56E65
:1009A8000C00000E216E020E206EA1EC07F0000E66
:1009B800F66E000EF76E1A0EF86E020EF56E0C004B
:1009C800000E216E020E206EA1EC07F0000EF66EEE
:1009D800000EF76E1A0EF86E010EF56E0C0012007E
:1009E8002350D8B401D001D008D0205021102210B3
:1009F800D8A401D001D010D000D0000E206E000E77
:100A0800216E000E226E6ED06DD006D0232AD890AB
:100A180022322132203200D0000E20140001606FF3
:100A2800000E21140001616FFE0E22140001626F96
:100A38000001605161116211D8A401D001D0E6D73C
:100A48000DD00CD0232A010E2026000E2122000EE4
:100A58002222D89022322132203200D0000E2014D7
:100A68000001606F000E21140001616FFF0E221457
:100A78000001626F0001605161116211D8A401D0B8
:100A880001D0E0D707D006D02306D89020362136EB
:100A9800223600D021AE01D001D0F6D723B001D044
:100AA80001D002D0219E00D0D890233223500001DB
:100AB800626F616B606B000160512012000161512F
:100AC80021120001625122122450D8B401D001D061
:100AD80002D0228E00D020C020F021C021F022C0F8
:100AE80022F000D01200246E000E00010001616F98
:100AF800245023AE01D001D00BD0226C231ED8B0D5
:100B0800232A246E010E00010001616F245000D0D9
:100B180021AE01D001D009D0206C211ED8B0212AE5
:100B2800010E00010001611B00D0000E0001000150
:100B3800636F000E0001626F23502210D8B401D0F9
:100B480001D033D0246E010E00010001606F2450E3
:100B580007D0D8902236233600010001602B00D040
:100B680023AE01D001D0F5D701D000D0000100019B
:100B78000001D890623763372250205C23502158F7
:100B8800D8A001D001D008D02250205E2350215A8D
:100B980000010001628100D0D89023322232000186
:100BA8000001602FE3D701D000D00001000161519E
:100BB800D8B401D001D008D000010001626D000155
:100BC800631FD8B0632B00D062C020F063C021F04F
:100BD80000D01200246E000E00010001616F245045
:100BE80021AE01D001D00BD0206C211ED8B0212A13
:100BF800246E010E00010001616F245000D023AE65
:100C080001D001D005D0226C231ED8B0232A00D0F1
:100C180023502210D8B401D001D02AD0246E010E5E
:100C280000010001606F245007D0D8902236233687
:100C380000010001602B00D023AE01D001D0F5D710
:100C480001D000D02250205C23502158D8A001D0D8
:100C580001D005D02250205E2350215A00D0D890D0
:100C68002332223200010001602FECD701D000D0DE
:100C7800000100016151D8B401D001D005D0206C29
:100C8800211ED8B0212A00D020C020F021C021F098
:100C980000D01200EACF15F0E1CF16F0E2CF17F03E
:100CA800D9CF18F0DACF19F0F3CF1AF0F4CF1BF040
:100CB800F6CF1CF0F7CF1DF0F8CF1EF0F5CF1FF0E0
:100CC800F2A201D001D006D0000E3C6E010E3B6EA0
:100CD800F29200D0A4AA01D001D007D0A49A000EA5
:100CE800366E010E356E9E9A00D0A4A801D001D0B0
:100CF80006D0000E386E010E376EA49800D01FC0C3
:100D0800F5FF1EC0F8FF1DC0F7FF1CC0F6FF1BC093
:100D1800F4FF1AC0F3FF19C0DAFF18C0D9FF17C0D3
:100D2800E2FF16C0E1FF15C0EAFF14C0E9FF13C0D7
:100D3800FBFF12C0FAFF1100A00E0F010F01266F72
:100D4800000E0F010F01256F0F010F012581C280D1
:100D5800C196CF0EC116C08E000E0F010F01246F71
:100D6800000E0F010F01236F0F010F01228F9884CE
:100D780098920F010F012199110E0F010F011E6F9B
:100D88000F010F01218B0F010F01228992689368CF
:100D98009382948E949C9494000E986E9882928874
:100DA800000E9A6ED08EF28EF28CF288F19CF2923E
:100DB800D59CD59AD598D596D550F80B0609D56EF9
:100DC8001200000E00010001616F000E0001606F4B
:100DD800000E00010001636F000E0001626F000148
:100DE800D6CF60F000010001616B0001D7CF62F03F
:100DF80000010001636B0001000162510001000164
:100E0800636F0001626B0001000160510001000185
:100E1800622500010001626F0001000161510001BB
:100E2800000163210001636F62C020F063C021F0FC
:100E380000D012000001676F000E00010001686F0A
:100E4800000167510001000165AF01D001D010D049
:100E580000010001646D0001651FD8B0652B000119
:100E6800676F010E00010001686F0001675100D033
:100E7800000164C020F0000165C021F0226A000171
:100E8800676F8E0E236E0001675168C024F0F4EC82
:100E980004F020C064F021C065F022C066F000D0E4
:100EA8001200000E00010001646F000E0001636F64
:100EB80007D0EEEC07F000010001634B642B00D073
:100EC800000100016151800A0001626F0001000108
:100ED800635100010001605D000100016451800A56
:100EE80000016259D8B001D001D0E3D700D0000E7C
:100EF800216E020E206EA1EC07F0120000EE8AF0BF
:100F0800140EEE6AE806FDE100EE25F01C0EEE6A0E
:100F1800E806FDE1380EF66E100EF76E000EF86E5C
:100F280000EE9EF010EE14F00900F5CFEEFFE5504C
:100F3800E150FAE1000153EF00F0000E246E000EBC
:100F4800236E0AD0040E226E950EE82EFED7222EAE
:100F5800FCD700D0234A242A2450800A226E20502D
:100F6800235C2150800A2258D8A001D001D0EAD7AA
:100F780000D01200000EF66E000EF76E1A0EF86E14
:100F8800C00EF56E0C00000E216E020E206EA1EC54
:100F980007F01200000EF66E000EF76E1A0EF86ECD
:100FA800020EF56E0C00000E216E020E206EA1ECF2
:100FB80007F01200000EF66E000EF76E1A0EF86EAD
:100FC800010EF56E0C00000E216E020E206EA1ECD3
:100FD80007F01200000EF66E000EF76E1A0EF86E8D
:100FE800140EF56E0C00000E216E020E206EA1ECA0
:100FF80007F0120000D00F010F0121A301D001D08A
:10100800FAD760C01CFF000E216E050E206EA1EC01
:1010180007F01200000EC76E000EC66EC68AC650D4
:10102800F00B0809C66E000EC56E1A0EC86E1200C7
:1010380061626364650000000000000000000000B9
:0410480000000000A4
:020000040020DA
:08000000FFFFFFFFFFFFFFFF00
:020000040030CA
:0E0000001D036100018B81FFFFC0FFE0FF4088
:00000001FF
