:0400000065EF00F0B8
:10000800FACF12F0FBCF13F0E9CF14F034EF03F07E
:10001800D8CF01F0E8CF02F0E0CF03F0FACF04F038
:10002800FBCF05F0E9CF06F0EACF07F0E1CF08F003
:10003800E2CF09F0D9CF0AF0DACF0BF0F3CF0CF00A
:10004800F4CF0DF0F6CF0EF0F7CF0FF0F8CF10F099
:10005800F5CF11F0A4AA01D001D006D0000E546E3D
:10006800010E536EA49A00D0A4A801D001D006D0E6
:10007800000E566E010E556EA49800D011C0F5FF03
:1000880010C0F8FF0FC0F7FF0EC0F6FF0DC0F4FF59
:100098000CC0F3FF0BC0DAFF0AC0D9FF09C0E2FFAA
:1000A80008C0E1FF07C0EAFF06C0E9FF05C0FBFF83
:1000B80004C0FAFF03C0E0FF02C0E8FF01C0D8FF98
:1000C80010008EEF03F029C020F02AC021F0000EA6
:1000D800236E0A0E226E9FEC02F020C045F021C06C
:1000E80046F029C020F02AC021F0000E236E0A0E27
:1000F800226E41EC02F020C029F021C02AF029C06C
:1001080020F02AC021F0000E236E0A0E226E9FEC0A
:1001180002F020C047F021C048F029C020F02AC0D2
:1001280021F0000E236E0A0E226E41EC02F020C070
:1001380029F021C02AF029C020F02AC021F0000EA1
:10014800236E0A0E226E9FEC02F020C049F021C0F7
:100158004AF029C020F02AC021F0000E236E0A0EB2
:10016800226E41EC02F020C029F021C02AF029C0FB
:1001780020F02AC021F0000E236E0A0E226E9FEC9A
:1001880002F020C04BF021C04CF029C020F02AC05A
:1001980021F0000E236E0A0E226E41EC02F020C000
:1001A80029F021C02AF029C020F02AC021F0000E31
:1001B800236E0A0E226E9FEC02F020C04DF021C083
:1001C8004EF029C020F02AC021F0000E236E0A0E3E
:1001D800226E41EC02F020C029F021C02AF029C08B
:1001E80020F02AC021F0000E236E0A0E226E9FEC2A
:1001F80002F020C04FF021C050F029C020F02AC0E2
:1002080021F0000E236E0A0E226E41EC02F020C08F
:1002180029F021C02AF0000E2E6E050E2D6E2EAE8E
:1002280001D001D002D02ED02DD0020EF66E000ED5
:10023800F76E1A0EF86ED8902D342B6E2E342C6E65
:10024800450E2B24D96E000E2C20DA6EDF50300FAD
:10025800F56E0C0001D000D0000EF66E000EF76EA1
:100268001A0EF86E0800F5CF2BF02BBE01D001D086
:10027800F3D700D02D06D8A02E062EAE01D001D07F
:10028800D4D700D01200000E216E640E206E71ECDF
:1002980003F0000EF66E000EF76E1A0EF86E380EAA
:1002A800F56E0C00000E216E050E206E71EC03F049
:1002B800000EF66E000EF76E1A0EF86E380EF56E1A
:1002C8000C00000E216E010E206E71EC03F0000E82
:1002D800F66E000EF76E1A0EF86E380EF56E0C00FC
:1002E800000E216E010E206E71EC03F0000EF66E0A
:1002F800000EF76E1A0EF86E380EF56E0C00000E32
:10030800216E010E206E71EC03F0000EF66E000EE9
:10031800F76E1A0EF86E140EF56E0C00000E216EB4
:10032800010E206E71EC03F0000EF66E000EF76EF3
:100338001A0EF86E0E0EF56E0C00000E216E010EF0
:10034800206E71EC03F0000EF66E000EF76E1A0EBA
:10035800F86E060EF56E0C00000E216E020E206E71
:1003680071EC03F0000EF66E000EF76E1A0EF86EC2
:10037800020EF56E0C00000E216E020E206E71EC5E
:1003880003F0000EF66E000EF76E1A0EF86E010EF0
:10039800F56E0C001200F3EC02F047EC01F0C7EC2C
:1003A80003F000D0D5EC03F0A7EC03F0B7EC03F0B2
:1003B8005BC029F05CC02AF067EC00F059045A10C1
:1003C800D8A401D001D012D0A7EC03F0B7EC03F009
:1003D800020EF66E000EF76E1A0EF86E410EF56EEE
:1003E8000C00000E5A6E000E596E00D053045410C3
:1003F800D8A401D001D012D0EAEC03F02F6E310E50
:100408004F24D96E000E5020DA6E2FC0DFFF4F4AFE
:10041800502A000E546E000E536E00D0FF0E4F246B
:100428002F6EFF0E5020306E310E2F24D96E000E25
:100438003020DA6E650EDF6201D001D014D0550489
:100448005610D8A401D001D00ED0310E5124D96E47
:10045800000E5220DA6EDF50206EEFEC03F0514AA6
:10046800522A01D000D0000E216E320E206E71EC9F
:1004780003F098D797D765EF00F0246E000E266E2C
:10048800245023AE01D001D009D0226C231ED8B04D
:10049800232A246E010E266E245000D021AE01D0EE
:1004A80001D007D0206C211ED8B0212A010E261AAF
:1004B80000D0000E286E000E276E23502210D8B4EC
:1004C80001D001D028D0246E010E256E245005D00D
:1004D800D89022362336252A00D023AE01D001D069
:1004E800F7D701D000D0D890273628362250205C84
:1004F80023502158D8A001D001D006D02250205E28
:100508002350215A278000D0D89023322232252E1A
:10051800EAD701D000D02650D8B401D001D005D0F8
:10052800276C281ED8B0282A00D027C020F028C061
:1005380021F000D01200246E000E266E245021AE49
:1005480001D001D009D0206C211ED8B0212A246EF8
:10055800010E266E245000D023AE01D001D005D064
:10056800226C231ED8B0232A00D023502210D8B4DE
:1005780001D001D024D0246E010E256E245005D060
:10058800D89022362336252A00D023AE01D001D0B8
:10059800F7D701D000D02250205C23502158D8A092
:1005A80001D001D005D02250205E2350215A00D01E
:1005B800D89023322232252EEED701D000D02650F3
:1005C800D8B401D001D005D0206C211ED8B0212A82
:1005D80000D020C020F021C021F000D01200A00ED1
:1005E8000F010F01266F000E0F010F01256F0F017C
:1005F8000F012581C280C196CF0EC116C08E000E94
:100608000F010F01246F000E0F010F01236F0F015F
:100618000F01228F988498920F010F012199110ED2
:100628000F010F011E6F0F010F01218B0F010F0129
:100638002289010E926E010E936E000E986E000EC6
:10064800836E000E846E000E876ED08EF28EF28C52
:10065800F288F19CF292A38AA388A59AA598120021
:10066800EACF15F0E1CF16F0E2CF17F0D9CF18F0A6
:10067800DACF19F0F3CF1AF0F4CF1BF0F6CF1CF055
:10068800F7CF1DF0F8CF1EF0F5CF1FF0F2A201D082
:1006980001D006D0000E5A6E010E596EF29200D0AB
:1006A8001FC0F5FF1EC0F8FF1DC0F7FF1CC0F6FFF6
:1006B8001BC0F4FF1AC0F3FF19C0DAFF18C0D9FF36
:1006C80017C0E2FF16C0E1FF15C0EAFF14C0E9FF3A
:1006D80013C0FBFF12C0FAFF1100000E246E000EBB
:1006E800236E0AD0040E226E950EE82EFED7222E17
:1006F800FCD700D0234A242A2450800A226E205096
:10070800235C2150800A2258D8A001D001D0EAD712
:1007180000D0120000EE31F02E0EEE6AE806FDE180
:10072800C00EF66E070EF76E000EF86E00EE60F063
:1007380010EE14F00900F5CFEEFFE550E150FAE1B4
:100748000001CFEF01F0000EF66E000EF76E1A0EE4
:10075800F86E010EF56E0C00000E216E020E206E72
:1007680071EC03F01200000EF66E000EF76E1A0E12
:10077800F86E020EF56E0C00000E216E020E206E51
:1007880071EC03F01200000EC76E000EC66EC68A2A
:10079800C650F00B0809C66E000EC56E1A0EC86E5C
:1007A8001200000EF66E000EF76E180EF86E0800B6
:1007B800F550300F5E6E12006162636465000000E0
:1007C8000000000000000000000000000F010F0101
:0C07D8001D5100D0120020C01CFF1200B8
:020000040020DA
:08000000FFFFFFFFFFFFFFFF00
:020000040030CA
:0E0000001D036100018B81FFFFC0FFE0FF4088
:00000001FF
