:0400000051EF00F0CC
:10000800FACF12F0FBCF13F0E9CF14F095EF03F01D
:10001800D8CF01F0E8CF02F0E0CF03F0FACF04F038
:10002800FBCF05F0E9CF06F0EACF07F0E1CF08F003
:10003800E2CF09F0D9CF0AF0DACF0BF0F3CF0CF00A
:10004800F4CF0DF0F6CF0EF0F7CF0FF0F8CF10F099
:10005800F5CF11F011C0F5FF10C0F8FF0FC0F7FF82
:100068000EC0F6FF0DC0F4FF0CC0F3FF0BC0DAFFA3
:100078000AC0D9FF09C0E2FF08C0E1FF07C0EAFFD4
:1000880006C0E9FF05C0FBFF04C0FAFF03C0E0FF9C
:1000980002C0E8FF01C0D8FF100092EF04F0E7ECBF
:1000A80003F036EC02F01EEC05F00001966F530EDB
:1000B80000010001886F0001965100010EEC05F067
:1000C8000001966F650E00010001886F00019651CE
:1000D80000010EEC05F00001966F720E00010001A0
:1000E800886F0001965100010EEC05F00001966F33
:1000F800690E00010001886F0001965100010EECA5
:1001080005F00001966F610E00010001886F000183
:10011800965100010EEC05F00001966F6C0E00017F
:100128000001886F0001965100010EEC05F00001F6
:10013800966F0D0E00010001886F000196510001B5
:100148000EEC05F00001966F0A0E00010001886FA1
:100158000001965100010EEC05F0DEEC04F0EEEC27
:1001680004F0CEEC04F0020EF66E000EF76E1A0ED6
:10017800F86E530EF56E0C00000E216E020E206E06
:10018800B1EC04F0020EF66E000EF76E1A0EF86E61
:100198005F0EF56E0C00000E216E020E206EB1ECA3
:1001A80004F0020EF66E000EF76E1A0EF86E560E7A
:1001B800F56E0C00000E216E020E206EB1EC04F0FC
:1001C800020EF66E000EF76E1A0EF86E450EF56EFC
:1001D8000C00000E216E020E206EB1EC04F0020E2F
:1001E800F66E000EF76E1A0EF86E4E0EF56E0C00D7
:1001F800000E216E020E206EB1EC04F0020EF66EB7
:10020800000EF76E1A0EF86E540EF56E0C00000E06
:10021800216E020E206EB1EC04F0020EF66E000E96
:10022800F76E1A0EF86E3D0EF56E0C00000E216E7C
:10023800020E206EB1EC04F000D03B043C10D8A4B0
:1002480001D001D021D0DEEC04F0EEEC04F02CEC6F
:1002580004F020C03DF021C03EF03DC08CF03EC00F
:100268008DF0000E000100018F6F040E00018E6FEB
:1002780000019DEC01F0000ED76E000ED66E000E48
:100288003C6E000E3B6E00D08B84000ED76E000EC5
:10029800D66ED58E030E216EE80E206EB1EC04F0FA
:1002A800D59ECEEC04F0000E00010001896F070E08
:1002B8000001886F000165EC04F02CEC04F020C00C
:1002C8003DF021C03EF03DC08CF03EC08DF0000EE8
:1002D800000100018F6F040E00018E6F00019DEC7C
:1002E80001F0020EF66E000EF76E1A0EF86E480E4A
:1002F800F56E0C00000E216E020E206EB1EC04F0BB
:10030800020EF66E000EF76E1A0EF86E7A0EF56E85
:100318000C00000E216E020E206EB1EC04F0000EEF
:10032800216E190E206EB1EC04F087D786D751EFF5
:1003380000F0000E00010001936F000E0001926FA3
:1003480034D08CC020F08DC021F0000E236E0A0E30
:10035800226E35EC03F0D8900001000192350001BF
:10036800906F0001000193350001916F250E000187
:100378009025D96E000E00019121DA6E20C0DEFFB3
:1003880021C0DDFF8CC020F08DC021F0000E236E4F
:100398000A0E226EBEEC02F020C08CF021C08DF057
:1003A80000010001924B932B00D0000100018F51F6
:1003B800800A0001906F00010001925100010001C4
:1003C8008E5D000100019351800A00019059D8B058
:1003D80001D001D0B6D78EC094F08FC095F000013F
:1003E800000195AF01D001D002D03BD03AD0020E27
:1003F800F66E000EF76E1A0EF86ED8900001000126
:1004080094350001906F0001000195350001916F4E
:10041800250E00019025D96E000E00019121DA6E9B
:10042800DF50300FF56E0C0001D000D0000EF66ED4
:10043800000EF76E1A0EF86E0800F5CF90F0000166
:1004480090BF01D001D0F2D700D00001000194077D
:10045800D8A095070001000195AF01D001D0C7D7FA
:1004680000D01200000E216E640E206EB1EC04F074
:10047800000EF66E000EF76E1A0EF86E380EF56E58
:100488000C00000E216E050E206EB1EC04F0000E7B
:10049800F66E000EF76E1A0EF86E380EF56E0C003A
:1004A800000E216E010E206EB1EC04F0000EF66E07
:1004B800000EF76E1A0EF86E380EF56E0C00000E70
:1004C800216E010E206EB1EC04F0000EF66E000EE7
:1004D800F76E1A0EF86E380EF56E0C00000E216ECF
:1004E800010E206EB1EC04F0000EF66E000EF76EF1
:1004F8001A0EF86E140EF56E0C00000E216E010E29
:10050800206EB1EC04F0000EF66E000EF76E1A0EB7
:10051800F86E0E0EF56E0C00000E216E010E206EA8
:10052800B1EC04F0000EF66E000EF76E1A0EF86EBF
:10053800060EF56E0C00000E216E020E206EB1EC58
:1005480004F0000EF66E000EF76E1A0EF86E020E2C
:10055800F56E0C00000E216E020E206EB1EC04F058
:10056800000EF66E000EF76E1A0EF86E010EF56E9E
:100578000C001200246E000E00010001896F245047
:1005880023AE01D001D00BD0226C231ED8B0232A71
:10059800246E010E00010001896F245000D021AEA5
:1005A80001D001D009D0206C211ED8B0212A010E1B
:1005B80000010001891B00D0000E000100018B6FB3
:1005C800000E00018A6F23502210D8B401D001D048
:1005D80033D0246E010E00010001886F245007D02B
:1005E800D8902236233600010001882B00D023AE94
:1005F80001D001D0F5D701D000D0000100010001E1
:10060800D8908A378B372250205C23502158D8A0A5
:1006180001D001D008D02250205E2350215A000179
:1006280000018A8100D0D8902332223200010001D3
:10063800882FE3D701D000D0000100018951D8B438
:1006480001D001D008D0000100018A6D00018B1F84
:10065800D8B08B2B00D08AC020F08BC021F000D0FE
:100668001200246E000E00010001896F245021AE93
:1006780001D001D00BD0206C211ED8B0212A246EC5
:10068800010E00010001896F245000D023AE01D073
:1006980001D005D0226C231ED8B0232A00D02350C5
:1006A8002210D8B401D001D02AD0246E010E000146
:1006B8000001886F245007D0D890223623360001D5
:1006C8000001882B00D023AE01D001D0F5D701D08E
:1006D80000D02250205C23502158D8A001D001D04E
:1006E80005D02250205E2350215A00D0D8902332C2
:1006F800223200010001882FECD701D000D0000180
:1007080000018951D8B401D001D005D0206C211E38
:10071800D8B0212A00D020C020F021C021F000D07C
:100728001200EACF15F0E1CF16F0E2CF17F0D9CFDB
:1007380018F0DACF19F0F3CF1AF0F4CF1BF0F6CF98
:100748001CF0F7CF1DF0F8CF1EF0F5CF1FF0F2A286
:1007580001D001D006D0000E3C6E010E3B6EF29225
:1007680000D0A4AA01D001D007D0A49A000E366EFA
:10077800010E356E9E9A00D0A4A801D001D006D0F3
:10078800000E386E010E376EA49800D01FC0F5FF1A
:100798001EC0F8FF1DC0F7FF1CC0F6FF1BC0F4FF0A
:1007A8001AC0F3FF19C0DAFF18C0D9FF17C0E2FF5B
:1007B80016C0E1FF15C0EAFF14C0E9FF13C0FBFF34
:1007C80012C0FAFF1100A00E0F010F01266F000ED4
:1007D8000F010F01256F0F010F012581C280C196FE
:1007E800CF0EC116C08E000E0F010F01246F000E30
:1007F8000F010F01236F0F010F01228F9884989228
:100808000F010F012199110E0F010F011E6F0F012A
:100818000F01218B0F010F0122899268936893823F
:10082800948E949C9494000E986E98829288000EF0
:100838009A6ED08EF28EF28CF288F19CF292D59C50
:10084800D58AD598D586D550F80B0609D56E1200ED
:10085800000E00010001896F000E0001886F000E74
:10086800000100018B6F000E00018A6F0001D6CFD6
:1008780088F000010001896B0001D7CF8AF00001E0
:1008880000018B6B000100018A51000100018B6F90
:1008980000018A6B000100018851000100018A25CE
:1008A800000100018A6F0001000189510001000167
:1008B8008B2100018B6F8AC020F08BC021F000D003
:1008C8001200000E000100018C6F000E00018B6FFA
:1008D80007D0FEEC04F0000100018B4B8C2B00D0FC
:1008E800000100018951800A00018A6F000100019E
:1008F8008B5100010001885D000100018C51800AC4
:1009080000018A59D8B001D001D0E3D700D0000E39
:10091800216E020E206EB1EC04F0120000EE60F0C1
:10092800140EEE6AE806FDE100EE25F01C0EEE6AF4
:10093800E806FDE1580EF66E0A0EF76E000EF86E28
:1009480000EE74F010EE14F00900F5CFEEFFE5505C
:10095800E150FAE1000153EF00F0000E246E000EA2
:10096800236E0AD0040E226E950EE82EFED7222E94
:10097800FCD700D0234A242A2450800A226E205013
:10098800235C2150800A2258D8A001D001D0EAD790
:1009980000D01200000EF66E000EF76E1A0EF86EFA
:1009A800C00EF56E0C00000E216E020E206EB1EC2A
:1009B80004F01200000EF66E000EF76E1A0EF86EB6
:1009C800010EF56E0C00000E216E020E206EB1ECC9
:1009D80004F01200000EF66E000EF76E1A0EF86E96
:1009E800020EF56E0C00000E216E020E206EB1ECA8
:1009F80004F01200000EF66E000EF76E1A0EF86E76
:100A0800140EF56E0C00000E216E020E206EB1EC75
:100A180004F0120000D00F010F0121A301D001D072
:100A2800FAD788C01CFF000E216E050E206EB1ECAF
:100A380004F01200000EC76E000EC66EC68AC650BD
:100A4800F00B0809C66E000EC56E1A0EC86E1200AD
:100A5800616263646500000000000000000000009F
:040A6800000000008A
:020000040020DA
:08000000FFFFFFFFFFFFFFFF00
:020000040030CA
:0E0000001D036100018B81FFFFC0FFE0FF4088
:00000001FF
