:0400000051EF00F0CC
:10000800FACF12F0FBCF13F0E9CF14F0C2EF04F0EF
:10001800D8CF01F0E8CF02F0E0CF03F0FACF04F038
:10002800FBCF05F0E9CF06F0EACF07F0E1CF08F003
:10003800E2CF09F0D9CF0AF0DACF0BF0F3CF0CF00A
:10004800F4CF0DF0F6CF0EF0F7CF0FF0F8CF10F099
:10005800F5CF11F011C0F5FF10C0F8FF0FC0F7FF82
:100068000EC0F6FF0DC0F4FF0CC0F3FF0BC0DAFFA3
:100078000AC0D9FF09C0E2FF08C0E1FF07C0EAFFD4
:1000880006C0E9FF05C0FBFF04C0FAFF03C0E0FF9C
:1000980002C0E8FF01C0D8FF10007EEF05F070EC49
:1000A80004F0FDEC01F03AEC06F000019A6F530EF3
:1000B800000100018C6F00019A51000126EC06F046
:1000C80000019A6F650E000100018C6F00019A51C2
:1000D800000126EC06F000019A6F720E0001000183
:1000E8008C6F00019A51000126EC06F000019A6F0E
:1000F800690E000100018C6F00019A51000126EC85
:1001080006F000019A6F610E000100018C6F00017A
:100118009A51000126EC06F000019A6F6C0E00015E
:1001280000018C6F00019A51000126EC06F00001D5
:100138009A6F0D0E000100018C6F00019A510001A9
:1001480026EC06F000019A6F0A0E000100018C6F80
:1001580000019A51000126EC06F012EC06F0EAECD8
:1001680005F0D6EC05F0020EF66E000EF76E1A0ECC
:10017800F86E530EF56E0C00000E00010001896F39
:10018800020E0001886F0001ADEC05F0020EF66E5C
:10019800000EF76E1A0EF86E5F0EF56E0C00000E6C
:1001A80000010001896F020E0001886F0001ADECAB
:1001B80005F0020EF66E000EF76E1A0EF86E560E69
:1001C800F56E0C00000E00010001896F020E00019F
:1001D800886F0001ADEC05F0020EF66E000EF76EAA
:1001E8001A0EF86E450EF56E0C00000E00010001A7
:1001F800896F020E0001886F0001ADEC05F0020E58
:10020800F66E000EF76E1A0EF86E4E0EF56E0C00B6
:10021800000E00010001896F020E0001886F0001C5
:10022800ADEC05F0020EF66E000EF76E1A0EF86EC3
:10023800540EF56E0C00000E00010001896F020ECD
:100248000001886F0001ADEC05F0020EF66E000E9D
:10025800F76E1A0EF86E3D0EF56E0C00000E0001DA
:100268000001896F020E0001886F0001ADEC05F0F6
:1002780000D037043810D8A401D001D024D012EC13
:1002880006F0EAEC05F0000114EC05F0000188C066
:1002980039F0000189C03AF039C090F03AC091F0C5
:1002A800000E00010001936F040E0001926F00011F
:1002B800A9EC02F0000ED76E000ED66E000E386E56
:1002C800000E376E00D08B84D6EC05F0000E0001CE
:1002D80000018D6F070E00018C6F00014DEC05F0D9
:1002E80086A801D001D01DD0650E3D5C000E3E5899
:1002F800D8A001D001D005D0000E3E6E640E3D6E30
:1003080005D0050E3D26000E3E2200D0000E00014D
:100318000001896F0F0E0001886F0001ADEC05F038
:1003280000D086A601D001D01DD0050E3D5C000E80
:100338003E58D8B001D001D005D0000E3E6E000E58
:100348003D6E05D0050E3D5E000E3E5A00D0000EF3
:1003580000010001896F0F0E0001886F0001ADECEC
:1003680005F000D0650E3D5C000E3E58D8A001D0C7
:1003780001D005D0000E3E6E640E3D6E00D03DC02B
:10038800BCFF3DC090F03EC091F0000E000100019E
:10039800936F040E0001926F0001A9EC02F0020EA7
:1003A800F66E000EF76E1A0EF86E250EF56E0C003E
:1003B800000E00010001896F020E0001886F000124
:1003C800ADEC05F0020EF66E000EF76E1A0EF86E22
:1003D800200EF56E0C00000E00010001896F020E60
:1003E8000001886F0001ADEC05F043D742D751EF0B
:1003F80000F0000E00010001896F640E0001886F93
:100408000001ADEC05F0000EF66E000EF76E1A0E48
:10041800F86E380EF56E0C00000E00010001896FB1
:10042800050E0001886F0001ADEC05F0000EF66EB8
:10043800000EF76E1A0EF86E380EF56E0C00000EF0
:1004480000010001896F010E0001886F0001ADEC09
:1004580005F0000EF66E000EF76E1A0EF86E380EE6
:10046800F56E0C00000E00010001896F010E0001FD
:10047800886F0001ADEC05F0000EF66E000EF76E09
:100488001A0EF86E380EF56E0C00000E0001000111
:10049800896F010E0001886F0001ADEC05F0000EB8
:1004A800F66E000EF76E1A0EF86E140EF56E0C004E
:1004B800000E00010001896F010E0001886F000124
:1004C800ADEC05F0000EF66E000EF76E1A0EF86E23
:1004D8000E0EF56E0C00000E00010001896F010E72
:1004E8000001886F0001ADEC05F0000EF66E000EFD
:1004F800F76E1A0EF86E060EF56E0C00000E00016F
:100508000001896F020E0001886F0001ADEC05F053
:10051800000EF66E000EF76E1A0EF86E020EF56EED
:100528000C00000E00010001896F020E0001886FA7
:100538000001ADEC05F0000EF66E000EF76E1A0E17
:10054800F86E010EF56E0C001200000E000100019D
:10055800976F000E0001966F40D090C088F091C050
:1005680089F0000E000100018B6F0A0E00018A6FEE
:100578000001E9EC03F0D890000100019635000174
:10058800946F0001000197350001956F210E00015D
:100598009425D96E000E00019521DA6E000188C0FD
:1005A800DEFF000189C0DDFF90C088F091C089F0AE
:1005B800000E000100018B6F0A0E00018A6F000116
:1005C8004EEC03F0000188C090F0000189C091F062
:1005D80000010001964B972B00D0000100019351B8
:1005E800800A0001946F000100019651000100018A
:1005F800925D000100019751800A00019459D8B01A
:1006080001D001D0AAD792C098F093C099F0000108
:10061800000199AF01D001D002D03BD03AD0020EF0
:10062800F66E000EF76E1A0EF86ED89000010001F3
:1006380098350001946F0001000199350001956F0C
:10064800210E00019425D96E000E00019521DA6E65
:10065800DF50300FF56E0C0001D000D0000EF66EA2
:10066800000EF76E1A0EF86E0800F5CF94F0000130
:1006780094BF01D001D0F2D700D000010001980743
:10068800D8A099070001000199AF01D001D0C7D7C0
:1006980000D01200206E000E000100018D6F205066
:1006A800000100018BAF01D001D00ED00001000184
:1006B8008A6D00018B1FD8B08B2B206E010E0001B4
:1006C80000018D6F205000D00001000189AF01D0DA
:1006D80001D00CD000010001886D0001891FD8B03D
:1006E800892B010E000100018D1B00D0000E0001B6
:1006F80000018F6F000E00018E6F000100018B5109
:100708008A11D8B401D001D04BD0206E010E00015F
:1007180000018C6F20500AD0000100010001D89020
:100728008A378B37000100018C2B00D000010001B3
:100738008BAF01D001D0F0D701D000D0000100016B
:100748000001D8908E378F37000100018A510001CF
:100758000001885D000100018B51000100018959E9
:10076800D8A001D001D010D0000100018A510001A9
:100778000001885F000100018B5100010001895BC5
:10078800000100018E8100D0000100010001D89015
:100798008B338A33000100018C2FD0D701D000D0D1
:1007A800000100018D51D8B401D001D008D000015A
:1007B80000018E6D00018F1FD8B08F2B00D08EC026
:1007C80088F08FC089F000D01200206E000E000162
:1007D80000018D6F20500001000189AF01D001D0C8
:1007E8000ED000010001886D0001891FD8B0892B47
:1007F800206E010E000100018D6F205000D0000115
:1008080000018BAF01D001D008D0000100018A6D32
:1008180000018B1FD8B08B2B00D0000100018B5139
:100828008A11D8B401D001D042D0206E010E000147
:1008380000018C6F20500AD0000100010001D890FF
:100848008A378B37000100018C2B00D00001000192
:100858008BAF01D001D0F0D701D000D0000100014A
:100868008A5100010001885D000100018B510001DF
:1008780000018959D8A001D001D00DD00001000194
:100888008A5100010001885F000100018B510001BD
:100898000001895B00D0000100010001D8908B3372
:1008A8008A33000100018C2FD9D701D000D0000174
:1008B80000018D51D8B401D001D008D00001000149
:1008C800886D0001891FD8B0892B00D088C088F0B6
:1008D80089C089F000D01200A00E0F010F01266F09
:1008E800000E0F010F01256F0F010F012581C28036
:1008F800C196CF0EC116C08E000E0F010F01246FD6
:10090800000E0F010F01236F0F010F01228F988432
:1009180098920F010F012199110E0F010F011E6FFF
:100928000F010F01218B0F010F0122899268936833
:100938009382948E949C000E986E988292889886E2
:100948009888000E9A6ED08EF28EF28CF288F19C06
:10095800F292D59CD58AD598D586D550F80B06093C
:10096800D56E94943FC0CBFF3DC0BCFF000ECA6E4D
:100978000C0EBB6E000ECC6ECA841200EACF15F0C6
:10098800E1CF16F0E2CF17F0D9CF18F0DACF19F08F
:10099800F3CF1AF0F4CF1BF0F6CF1CF0F7CF1DF011
:1009A800F8CF1EF0F5CF1FF0F2A201D001D006D08B
:1009B800000E386E010E376EF29200D0A4AA01D054
:1009C80001D007D0A49A000E326E010E316E9E9AA5
:1009D80000D0A4A801D001D006D0000E346E010EBC
:1009E800336EA49800D01FC0F5FF1EC0F8FF1DC0CD
:1009F800F7FF1CC0F6FF1BC0F4FF1AC0F3FF19C0B5
:100A0800DAFF18C0D9FF17C0E2FF16C0E1FF15C012
:100A1800EAFF14C0E9FF13C0FBFF12C0FAFF110080
:100A2800000E000100018B6F000E00018A6F000E9E
:100A3800000100018D6F000E00018C6F0001D6CF00
:100A48008AF0000100018B6B0001D7CF8CF0000108
:100A580000018D6B000100018C51000100018D6FB8
:100A680000018C6B000100018A51000100018C25F6
:100A7800000100018C6F000100018B510001000191
:100A88008D2100018D6F8CC088F08DC089F000D059
:100A98001200000E00010001906F000E00018F6F20
:100AA80007D0FEEC05F0000100018F4B902B00D021
:100AB800000100018D51800A00018E6F00010001C4
:100AC8008F51000100018C5D000100019051800AE6
:100AD80000018E59D8B001D001D0E3D700D0000E64
:100AE80000010001896F020E0001886F0001ADEC62
:100AF80005F0120000EE60F0140EEE6AE806FDE163
:100B080000EE21F01C0EEE6AE806FDE1900EF66E8E
:100B18000C0EF76E000EF86E00EE74F010EE14F086
:100B28000900F5CFEEFFE550E150FAE1A40EF66EAC
:100B38000C0EF76E000EF86E00EE3DF010EE04F0AD
:100B48000900F5CFEEFFE550E150FAE1000153EF5F
:100B580000F0000E000100018B6F000E00018A6F8B
:100B68000CD0040E206E950EE82EFED7202EFCD752
:100B780000D0000100018A4B8B2B000100018B5132
:100B8800800A206E00018851000100018A5D000181
:100B980000018951800A2058D8A001D001D0E1D79E
:100BA80000D01200000EF66E000EF76E1A0EF86EE8
:100BB800C00EF56E0C00000E00010001896F020ED8
:100BC8000001886F0001ADEC05F01200000EF66E12
:100BD800000EF76E1A0EF86E020EF56E0C00000E7F
:100BE80000010001896F020E0001886F0001ADEC61
:100BF80005F01200000EF66E000EF76E1A0EF86E73
:100C0800140EF56E0C00000E00010001896F020E33
:100C18000001886F0001ADEC05F01200000EF66EC1
:100C2800000EF76E1A0EF86E010EF56E0C00000E2F
:100C380000010001896F020E0001886F0001ADEC10
:100C480005F0120000D00F010F0121A301D001D03F
:100C5800FAD78CC01CFF000E00010001896F050E39
:100C68000001886F0001ADEC05F01200000EC76EA0
:100C7800000EC66EC68AC650F00B0809C66E000E76
:100C8800C56E1A0EC86E12006162636465000000CA
:100C98000000000000000000000000000A006400DE
:020000040020DA
:08000000FFFFFFFFFFFFFFFF00
:020000040030CA
:0E0000001D036100018B81FFFFC0FFE0FF4088
:00000001FF
