:0400000051EF00F0CC
:10000800FACF40F0FBCF41F0E9CF42F0DBEF00F050
:10001800D8CF2FF0E8CF30F0E0CF31F0FACF32F080
:10002800FBCF33F0E9CF34F0EACF35F0E1CF36F04B
:10003800E2CF37F0D9CF38F0DACF39F0F3CF3AF052
:10004800F4CF3BF0F6CF3CF0F7CF3DF0F8CF3EF0E1
:10005800F5CF3FF03FC0F5FF3EC0F8FF3DC0F7FFCA
:100068003CC0F6FF3BC0F4FF3AC0F3FF39C0DAFFEB
:1000780038C0D9FF37C0E2FF36C0E1FF35C0EAFF1C
:1000880034C0E9FF33C0FBFF32C0FAFF31C0E0FFE4
:1000980030C0E8FF2FC0D8FF1000D2EF01F0000EEB
:1000A8004F6E640E4E6EB5EC01F0000EF66E000E4B
:1000B800F76E1A0EF86E380EF56E0C00000E4F6EC5
:1000C800050E4E6EB5EC01F0000EF66E000EF76EE2
:1000D8001A0EF86E380EF56E0C00000E4F6E010EFB
:1000E8004E6EB5EC01F0000EF66E000EF76E1A0EAD
:1000F800F86E380EF56E0C00000E4F6E010E4E6E47
:10010800B5EC01F0000EF66E000EF76E1A0EF86EE2
:10011800380EF56E0C00000E4F6E010E4E6EB5ECEB
:1001280001F0000EF66E000EF76E1A0EF86E140E41
:10013800F56E0C00000E4F6E010E4E6EB5EC01F020
:10014800000EF66E000EF76E1A0EF86E0E0EF56EB5
:100158000C00000E4F6E010E4E6EB5EC01F0000E55
:10016800F66E000EF76E1A0EF86E060EF56E0C009F
:10017800000E4F6E020E4E6EB5EC01F0000EF66EDC
:10018800000EF76E1A0EF86E020EF56E0C00000ED9
:100198004F6E020E4E6EB5EC01F0000EF66E000EBC
:1001A800F76E1A0EF86E010EF56E0C001200EACF0B
:1001B80043F0E1CF44F0E2CF45F0D9CF46F0DACFB3
:1001C80047F0F3CF48F0F4CF49F0F6CF4AF0F7CF35
:1001D8004BF0F8CF4CF0F5CF4DF0F2A201D001D0A2
:1001E80006D0000E2A6E010E296EF29200D0A4AA43
:1001F80001D001D006D0A49A000E246E010E236E01
:1002080000D0A4A801D001D006D0000E266E010EA1
:10021800256EA49800D04DC0F5FF4CC0F8FF4BC028
:10022800F7FF4AC0F6FF49C0F4FF48C0F3FF47C0D4
:10023800DAFF46C0D9FF45C0E2FF44C0E1FF43C032
:10024800EAFF42C0E9FF41C0FBFF40C0FAFF1100CE
:1002580078EC01F053EC00F019EC02F000D027EC38
:1002680002F029042A10D8A401D001D033D0EBEC35
:1002780001F0FBEC01F0546E480E536E54500BEC39
:1002880002F0546E650E536E54500BEC02F0546E2F
:100298006C0E536E54500BEC02F0546E6C0E536E91
:1002A80054500BEC02F0546E6F0E536E54500BEC1E
:1002B80002F0546E0D0E536E54500BEC02F0546E57
:1002C8000A0E536E54500BEC02F0000E2A6E000E0C
:1002D800296E00D0000E4F6E640E4E6EB5EC01F024
:1002E800BED7BDD751EF00F0A00E0F010F01266F4A
:1002F800000E0F010F01256F0F010F012581C2802C
:10030800C196CF0EC116C08E000E0F010F01246FCB
:10031800000E0F010F01236F0F010F01228F988428
:1003280098920F010F012199110E0F010F011E6FF5
:100338000F010F01218B0F010F012289010E926E0F
:10034800010E936E000E986E000E836E000E846E82
:10035800000E876ED08EF28EF28CF288F19CF292AB
:100368001200000E526E000E516E0AD0040E506E2E
:10037800950EE82EFED7502EFCD700D0514A522AAF
:100388005250800A506E4E50515C4F50800A50585F
:10039800D8A001D001D0EAD700D0120000EE01F0B9
:1003A8002E0EEE6AE806FDE1640EF66E040EF76E98
:1003B800000EF86E00EE60F010EE14F00900F5CFB4
:1003C800EEFFE550E150FAE100012CEF01F0000EDC
:1003D800F66E000EF76E1A0EF86E010EF56E0C0032
:1003E800000E4F6E020E4E6EB5EC01F01200000EBC
:1003F800F66E000EF76E1A0EF86E020EF56E0C0011
:10040800000E4F6E020E4E6EB5EC01F0120000D0D9
:10041800A4AA01D001D0FCD753C01CFF000E4F6E18
:10042800050E4E6EB5EC01F01200000EC76E000E00
:10043800C66EC68AC650F00B0809C66E000EC56E99
:100448001A0EC86E1200000EF66E000EF76E180E29
:10045800F86E0800F550300F2E6E1200616263646A
:10046800650000000000000000000000000000001F
:020000040020DA
:08000000FFFFFFFFFFFFFFFF00
:020000040030CA
:0E0000001D036100018B81FFFFC0FFE0FF4088
:00000001FF
