:0400000047EF00F0D6
:10000800FACF01F0FBCF02F0E9CF03F0EACF04F01A
:10001800E1CF05F0E2CF06F0D9CF07F0DACF08F04C
:10002800F3CF09F0F4CF0AF0F6CF0BF0F7CF0CF0CE
:10003800F8CF0DF0F5CF0EF0F2A201D001D006D026
:10004800000E2E6E010E2D6EF29200D00EC0F5FF3E
:100058000DC0F8FF0CC0F7FF0BC0F6FF0AC0F4FF95
:1000680009C0F3FF08C0DAFF07C0D9FF06C0E2FFE6
:1000780005C0E1FF04C0EAFF03C0E9FF02C0FBFFBF
:1000880001C0FAFF11002AEF03F018C00FF019C0E1
:1000980010F0000E126E0A0E116E0FEC02F00FC077
:1000A80021F010C022F018C00FF019C010F0000E97
:1000B800126E0A0E116EB1EC01F00FC018F010C0EC
:1000C80019F018C00FF019C010F0000E126E0A0EC9
:1000D800116E0FEC02F00FC023F010C024F018C00E
:1000E8000FF019C010F0000E126E0A0E116EB1EC6E
:1000F80001F00FC018F010C019F018C00FF019C0A7
:1001080010F0000E126E0A0E116E0FEC02F00FC006
:1001180025F010C026F018C00FF019C010F0000E1E
:10012800126E0A0E116EB1EC01F00FC018F010C07B
:1001380019F018C00FF019C010F0000E126E0A0E58
:10014800116E0FEC02F00FC027F010C028F018C095
:100158000FF019C010F0000E126E0A0E116EB1ECFD
:1001680001F00FC018F010C019F018C00FF019C036
:1001780010F0000E126E0A0E116E0FEC02F00FC096
:1001880029F010C02AF018C00FF019C010F0000EA6
:10019800126E0A0E116EB1EC01F00FC018F010C00B
:1001A80019F018C00FF019C010F0000E126E0A0EE8
:1001B800116E0FEC02F00FC02BF010C02CF018C01D
:1001C8000FF019C010F0000E126E0A0E116EB1EC8D
:1001D80001F00FC018F010C019F0000E1D6E050ECA
:1001E8001C6E1DAE01D001D002D02ED02DD0020E33
:1001F800F66E000EF76E1A0EF86ED8901C341A6E52
:100208001D341B6E210E1A24D96E000E1B20DA6EC7
:10021800DF50300FF56E0C0001D000D0000EF66EE6
:10022800000EF76E1A0EF86E0800F5CF1AF01ABE17
:1002380001D001D0F3D700D01C06D8A01D061DAEF2
:1002480001D001D0D4D700D01200000E106E640E79
:100258000F6ECDEC02F0000EF66E000EF76E1A0E61
:10026800F86E380EF56E0C00000E106E050E0F6E4F
:10027800CDEC02F0000EF66E000EF76E1A0EF86E58
:10028800380EF56E0C00000E106E010E0F6ECDECE0
:1002980002F0000EF66E000EF76E1A0EF86E380EAB
:1002A800F56E0C00000E106E010E0F6ECDEC02F014
:1002B800000EF66E000EF76E1A0EF86E380EF56E1A
:1002C8000C00000E106E010E0F6ECDEC02F0000E49
:1002D800F66E000EF76E1A0EF86E140EF56E0C0020
:1002E800000E106E010E0F6ECDEC02F0000EF66ED1
:1002F800000EF76E1A0EF86E0E0EF56E0C00000E5C
:10030800106E010E0F6ECDEC02F0000EF66E000EB0
:10031800F76E1A0EF86E060EF56E0C00000E106ED3
:10032800020E0F6ECDEC02F0000EF66E000EF76EA8
:100338001A0EF86E020EF56E0C00000E106E020E0C
:100348000F6ECDEC02F0000EF66E000EF76E1A0E70
:10035800F86E010EF56E0C001200136E000E156E8D
:10036800135012AE01D001D009D0116C121ED8B0B2
:10037800122A136E010E156E135000D010AE01D064
:1003880001D007D00F6C101ED8B0102A010E151A14
:1003980000D0000E176E000E166E12501110D8B451
:1003A80001D001D028D0136E010E146E135005D061
:1003B800D89011361236142A00D012AE01D001D0CE
:1003C800F7D701D000D0D8901636173611500F5CE9
:1003D80012501058D8A001D001D006D011500F5E8D
:1003E8001250105A168000D0D89012321132142EA2
:1003F800EAD701D000D01550D8B401D001D005D02B
:10040800166C171ED8B0172A00D016C00FF017C0E8
:1004180010F000D01200136E000E156E135010AEBF
:1004280001D001D009D00F6C101ED8B0102A136E5D
:10043800010E156E135000D012AE01D001D005D0B8
:10044800116C121ED8B0122A00D012501110D8B454
:1004580001D001D024D0136E010E146E135005D0B4
:10046800D89011361236142A00D012AE01D001D01D
:10047800F7D701D000D011500F5C12501058D8A0F7
:1004880001D001D005D011500F5E1250105A00D083
:10049800D89012321132142EEED701D000D0155058
:1004A800D8B401D001D005D00F6C101ED8B0102AD6
:1004B80000D00FC00FF010C010F000D01200A4EC54
:1004C80002F029EC01F0B40E1E6E870EE82EFED75E
:1004D8001E2EFCD7B40E1E6E870EE82EFED71E2EDB
:1004E800FCD7B40E1E6E870EE82EFED71E2EFCD744
:1004F800300E206E390E1F6E00D01FEC03F00FEC8B
:1005080003F0FFEC02F02FC018F030C019F049ECEE
:1005180000F02D042E10D8A401D001D005D0000E73
:100528002E6E000E2D6E00D0EAEC02F0000E106E5A
:10053800C80E0F6ECDEC02F0E0D7DFD747EF00F022
:10054800A00E0F010F01266F000E0F010F01256F7E
:100558000F010F012581C280C196CF0EC116C08E32
:10056800000E0F010F01246F000E0F010F01236F02
:10057800010E936E010E926E000E836E000E846E55
:10058800000E876ED08EF28EF28CF288F19CF29279
:100598001200000E136E000E126E0AD0040E116EB9
:1005A800950EE82EFED7112EFCD700D0124A132A3A
:1005B8001350800A116E0F50125C1050800A1158A7
:1005C800D8A001D001D0EAD700D01200C2B201D021
:1005D80001D00ED0C4CF2FF0306A2F50306E2F6A62
:1005E800C3502F242F6E000E3020306EC28202D0EE
:1005F800C28200D01200000EF66E000EF76E1A0EC0
:10060800F86E020EF56E0C00000E106E020E0F6EE4
:10061800CDEC02F01200000EF66E000EF76E1A0E08
:10062800F86E010EF56E0C00000E106E020E0F6EC5
:10063800CDEC02F01200000EF66E000EF76E180EEA
:10064800F86E0800F550300F336E120000EE21F0FE
:0E065800130EEE6AE806FDE1000163EF02F00A
:020000040020DA
:08000000FFFFFFFFFFFFFFFF00
:020000040030CA
:0E0000001D036100018B81FFFFC0FFE0FF4088
:00000001FF
