:0400000047EF00F0D6
:10000800FACF01F0FBCF02F0E9CF03F0EACF04F01A
:10001800E1CF05F0E2CF06F0D9CF07F0DACF08F04C
:10002800F3CF09F0F4CF0AF0F6CF0BF0F7CF0CF0CE
:10003800F8CF0DF0F5CF0EF0F2A201D001D006D026
:10004800000E596E010E586EF29200D00EC0F5FFE8
:100058000DC0F8FF0CC0F7FF0BC0F6FF0AC0F4FF95
:1000680009C0F3FF08C0DAFF07C0D9FF06C0E2FFE6
:1000780005C0E1FF04C0EAFF03C0E9FF02C0FBFFBF
:1000880001C0FAFF1100C1EF04F018C00FF019C049
:1000980010F0000E126E0A0E116E6DEC03F00FC018
:1000A8004CF010C04DF018C00FF019C010F0000E41
:1000B800126E0A0E116E0FEC03F00FC018F010C08C
:1000C80019F018C00FF019C010F0000E126E0A0EC9
:1000D800116E6DEC03F00FC04EF010C04FF018C059
:1000E8000FF019C010F0000E126E0A0E116E0FEC10
:1000F80003F00FC018F010C019F018C00FF019C0A5
:1001080010F0000E126E0A0E116E6DEC03F00FC0A7
:1001180050F010C051F018C00FF019C010F0000EC8
:10012800126E0A0E116E0FEC03F00FC018F010C01B
:1001380019F018C00FF019C010F0000E126E0A0E58
:10014800116E6DEC03F00FC052F010C053F018C0E0
:100158000FF019C010F0000E126E0A0E116E0FEC9F
:1001680003F00FC018F010C019F018C00FF019C034
:1001780010F0000E126E0A0E116E6DEC03F00FC037
:1001880054F010C055F018C00FF019C010F0000E50
:10019800126E0A0E116E0FEC03F00FC018F010C0AB
:1001A80019F018C00FF019C010F0000E126E0A0EE8
:1001B800116E6DEC03F00FC056F010C057F018C068
:1001C8000FF019C010F0000E126E0A0E116E0FEC2F
:1001D80003F00FC018F010C019F0000E1D6E050EC8
:1001E8001C6E1DAE01D001D002D02ED02DD0020E33
:1001F800F66E000EF76E1A0EF86ED8901C341A6E52
:100208001D341B6E4C0E1A24D96E000E1B20DA6E9C
:10021800DF50300FF56E0C0001D000D0000EF66EE6
:10022800000EF76E1A0EF86E0800F5CF1AF01ABE17
:1002380001D001D0F3D700D01C06D8A01D061DAEF2
:1002480001D001D0D4D700D01200000E106E640E79
:100258000F6E56EC04F0000EF66E000EF76E1A0ED6
:10026800F86E380EF56E0C00000E106E050E0F6E4F
:1002780056EC04F0000EF66E000EF76E1A0EF86ECD
:10028800380EF56E0C00000E106E010E0F6E56EC57
:1002980004F0000EF66E000EF76E1A0EF86E380EA9
:1002A800F56E0C00000E106E010E0F6E56EC04F089
:1002B800000EF66E000EF76E1A0EF86E380EF56E1A
:1002C8000C00000E106E010E0F6E56EC04F0000EBE
:1002D800F66E000EF76E1A0EF86E140EF56E0C0020
:1002E800000E106E010E0F6E56EC04F0000EF66E46
:1002F800000EF76E1A0EF86E0E0EF56E0C00000E5C
:10030800106E010E0F6E56EC04F0000EF66E000E25
:10031800F76E1A0EF86E060EF56E0C00000E106ED3
:10032800020E0F6E56EC04F0000EF66E000EF76E1D
:100338001A0EF86E020EF56E0C00000E106E020E0C
:100348000F6E56EC04F0000EF66E000EF76E1A0EE5
:10035800F86E010EF56E0C001200236E000E256E6D
:10036800235022AE01D001D00DD0221E211E201E06
:100378001F6C000E202221222222236E010E256EE0
:10038800235000D01EAE01D001D00BD01E1E1D1E62
:100398001C1E1B6C000E1C221D221E22010E251A7B
:1003A80000D0000E266E000E276E000E286E000E7E
:1003B800296E22501F1020102110D8B401D001D06E
:1003C80036D0236E010E246E235007D0D8901F36E6
:1003D800203621362236242A00D022AE01D001D080
:1003E800F5D701D000D0D8902636273628362936BA
:1003F8001F501B5C20501C5821501D5822501E585D
:10040800D8A001D001D00AD01F501B5E20501C5A22
:1004180021501D5A22501E5A268000D0D8902232D0
:10042800213220321F32242EDED701D000D02550B1
:10043800D8B401D001D009D0291E281E271E266C49
:10044800000E27222822292200D026C01BF027C010
:100458001CF028C01DF029C01EF000D0120036C0C4
:100468003EF037C03FF038C040F039C041F03E1E82
:100478003F1E401E411E3E2A000E3F2240224122BE
:100488003A503E24136E3B503F20146E3C5040209F
:10049800156E3D504120166E2EC042F02FC043F01D
:1004A80030C044F031C045F0421E431E441E451E74
:1004B800422A000E4322442245222A5042240F6E2B
:1004C8002B504320106E2C504420116E2D50452087
:1004D800126EFAEC03F00FC01BF010C01CF011C034
:1004E8001DF012C01EF02EC046F02FC047F030C0DD
:1004F80048F031C049F0461E471E481E491E462A8C
:10050800000E472248224922325046241F6E33509B
:100518004720206E34504820216E35504920226EE5
:10052800B1EC01F036501B242A6E37501C202B6E7C
:1005380038501D202C6E39501E202D6E00D0120010
:100548002BEC04F029EC01F0A8EC04F000D0B6EC98
:1005580004F098EC04F088EC04F05AC018F05BC082
:1005680019F049EC00F058045910D8A401D001D072
:1005780005D0000E596E000E586E00D073EC04F0D2
:100588005AC02AF05BC02BF0000E2BBEFF0E2C6E5B
:100598002D6E000E2E6E000E2F6E000E306E000EA9
:1005A800316E000E326E100E336E000E346E000E79
:1005B800356E000E366E000E376E000E386E000E69
:1005C800396EFF0E3A6E000E3B6E000E3C6E000E4A
:1005D8003D6E33EC02F02AC04AF02BC04BF0C1EC60
:1005E80003F05B50800A750F340ED8B45A5CD8A05B
:1005F80001D001D003D0010E866E03D0000E866EA6
:1006080000D0000E106EC80E0F6E56EC04F09FD787
:100618009ED747EF00F0136E000E156E135012AE02
:1006280001D001D009D0116C121ED8B0122A136E55
:10063800010E156E135000D010AE01D001D007D0B6
:100648000F6C101ED8B0102A010E151A00D0000E1B
:10065800176E000E166E12501110D8B401D001D0CA
:1006680028D0136E010E146E135005D0D890113691
:100678001236142A00D012AE01D001D0F7D701D01B
:1006880000D0D8901636173611500F5C12501058FB
:10069800D8A001D001D006D011500F5E1250105AC8
:1006A800168000D0D89012321132142EEAD701D019
:1006B80000D01550D8B401D001D005D0166C171E43
:1006C800D8B0172A00D016C00FF017C010F000D00D
:1006D8001200136E000E156E135010AE01D001D02B
:1006E80009D00F6C101ED8B0102A136E010E156EAB
:1006F800135000D012AE01D001D005D0116C121EDB
:10070800D8B0122A00D012501110D8B401D001D09C
:1007180024D0136E010E146E135005D0D8901136E4
:100728001236142A00D012AE01D001D0F7D701D06A
:1007380000D011500F5C12501058D8A001D001D031
:1007480005D011500F5E1250105A00D0D8901232B6
:100758001132142EEED701D000D01550D8B401D0E4
:1007680001D005D00F6C101ED8B0102A00D00FC0D1
:100778000FF010C010F000D01200C58000D09EA667
:1007880001D001D0FCD79E96900EC96E00D0C5BC92
:1007980001D001D0FCD701D000D09EA601D001D055
:1007A800FCD79E96400EC96E00D0C5BC01D001D0C2
:1007B800FCD701D000D09EA601D001D0FCD79E96D0
:1007C8004AC0C9FF00D0C5BC01D001D0FCD701D0B8
:1007D80000D09EA601D001D0FCD79E96C58400D03B
:1007E8009EA601D001D0FCD79E961200000E176E6F
:1007F800000E186E000E196E000E1A6E00D00FA0B3
:1008080001D001D009D013501726145018221550C2
:10081800192216501A2200D0D890133614361536DD
:100828001636D8901232113210320F3212500F1081
:1008380010101110D8A401D001D0E1D717C00FF0C3
:1008480018C010F019C011F01AC012F01200A00E52
:100858000F010F01266F000E0F010F01256F0F0109
:100868000F012581C280C196CF0EC116C08E000E21
:100878000F010F01246F000E0F010F01236F010EEE
:10088800936E010E926E000E986E000E836E000E2F
:10089800846E000E876ED08EF28EF28CF288F19CF8
:1008A800F2921200000E136E000E126E0AD0040EA1
:1008B800116E950EE82EFED7112EFCD700D0124AE5
:1008C800132A1350800A116E0F50125C1050800AC0
:1008D8001158D8A001D001D0EAD700D01200C2B276
:1008E80001D001D00ED0C4CF5AF05B6A5A505B6E6B
:1008F8005A6AC3505A245A6E000E5B205B6EC2823D
:1009080002D0C28200D01200000EF66E000EF76E02
:100918001A0EF86E020EF56E0C00000E106E020E26
:100928000F6E56EC04F01200000EF66E000EF76E15
:100938001A0EF86E010EF56E0C00000E106E020E07
:100948000F6E56EC04F01200000EC76E000EC66E55
:10095800C68AC650F00B0809C66E000EC56E1A0E80
:10096800C86E1200000EF66E000EF76E180EF86EC6
:100978000800F550300F5E6E120000EE4CF0130EBA
:0C098800EE6AE806FDE10001A4EF02F0B9
:020000040020DA
:08000000FFFFFFFFFFFFFFFF00
:020000040030CA
:0E0000001D036100018B81FFFFC0FFE0FF4088
:00000001FF
