:0400000047EF00F0D6
:10000800FACF01F0FBCF02F0E9CF03F0EACF04F01A
:10001800E1CF05F0E2CF06F0D9CF07F0DACF08F04C
:10002800F3CF09F0F4CF0AF0F6CF0BF0F7CF0CF0CE
:10003800F8CF0DF0F5CF0EF0F2A201D001D006D026
:10004800000E176E010E166EF29200D00EC0F5FF6C
:100058000DC0F8FF0CC0F7FF0BC0F6FF0AC0F4FF95
:1000680009C0F3FF08C0DAFF07C0D9FF06C0E2FFE6
:1000780005C0E1FF04C0EAFF03C0E9FF02C0FBFFBF
:1000880001C0FAFF110037EF01F0000E106E640E88
:100098000F6E0FEC01F0000EF66E000EF76E1A0EE2
:1000A800F86E380EF56E0C00000E106E050E0F6E11
:1000B8000FEC01F0000EF66E000EF76E1A0EF86ED9
:1000C800380EF56E0C00000E106E010E0F6E0FEC60
:1000D80001F0000EF66E000EF76E1A0EF86E380E6E
:1000E800F56E0C00000E106E010E0F6E0FEC01F095
:1000F800000EF66E000EF76E1A0EF86E380EF56EDC
:100108000C00000E106E010E0F6E0FEC01F0000EC9
:10011800F66E000EF76E1A0EF86E140EF56E0C00E1
:10012800000E106E010E0F6E0FEC01F0000EF66E51
:10013800000EF76E1A0EF86E0E0EF56E0C00000E1D
:10014800106E010E0F6E0FEC01F0000EF66E000E31
:10015800F76E1A0EF86E060EF56E0C00000E106E95
:10016800020E0F6E0FEC01F0000EF66E000EF76E29
:100178001A0EF86E020EF56E0C00000E106E020ECE
:100188000F6E0FEC01F0000EF66E000EF76E1A0EF1
:10019800F86E010EF56E0C001200F0EC00F049EC60
:1001A80000F000D02CEC01F016041710D8A401D0F0
:1001B80001D0F8D7020EF66E000EF76E1A0EF86E22
:1001C8001AC0F5FF0C00000E176E000E166EEAD767
:1001D800E9D7E8D747EF00F0A00E0F010F01266F0F
:1001E800000E0F010F01256F000E0F010F01246F84
:1001F800000E0F010F01236F010E936E000E836E28
:10020800000E846E000E876ED08EF28EF28CF2880D
:10021800F19CF2921200000E136E000E126E0AD0BC
:10022800040E116E950EE82EFED7112EFCD700D0C5
:10023800124A132A1350800A116E0F50125C105084
:10024800800A1158D8A001D001D0EAD700D01200F6
:10025800000EF66E000EF76E180EF86E0800F550D8
:10026800300F1A6E120000EE14F0070EEE6AE80660
:08027800FDE10001D1EF00F0EF
:020000040020DA
:08000000FFFFFFFFFFFFFFFF00
:020000040030CA
:0E0000001D036100018B81FFFFC0FFE0FF4088
:00000001FF
